{
  "contractName": "GMAToken",
  "abi": [
    {
      "inputs": [],
      "stateMutability": "nonpayable",
      "type": "constructor"
    },
    {
      "anonymous": false,
      "inputs": [
        {
          "indexed": true,
          "internalType": "address",
          "name": "_owner",
          "type": "address"
        },
        {
          "indexed": true,
          "internalType": "address",
          "name": "_spender",
          "type": "address"
        },
        {
          "indexed": false,
          "internalType": "uint256",
          "name": "_value",
          "type": "uint256"
        }
      ],
      "name": "Approval",
      "type": "event"
    },
    {
      "anonymous": false,
      "inputs": [
        {
          "indexed": true,
          "internalType": "address",
          "name": "_from",
          "type": "address"
        },
        {
          "indexed": true,
          "internalType": "address",
          "name": "_to",
          "type": "address"
        },
        {
          "indexed": false,
          "internalType": "uint256",
          "name": "_value",
          "type": "uint256"
        }
      ],
      "name": "Transfer",
      "type": "event"
    },
    {
      "inputs": [
        {
          "internalType": "address",
          "name": "",
          "type": "address"
        },
        {
          "internalType": "address",
          "name": "",
          "type": "address"
        }
      ],
      "name": "allowance",
      "outputs": [
        {
          "internalType": "uint256",
          "name": "",
          "type": "uint256"
        }
      ],
      "stateMutability": "view",
      "type": "function",
      "constant": true
    },
    {
      "inputs": [
        {
          "internalType": "address",
          "name": "",
          "type": "address"
        }
      ],
      "name": "balanceOf",
      "outputs": [
        {
          "internalType": "uint256",
          "name": "",
          "type": "uint256"
        }
      ],
      "stateMutability": "view",
      "type": "function",
      "constant": true
    },
    {
      "inputs": [],
      "name": "decimals",
      "outputs": [
        {
          "internalType": "uint8",
          "name": "",
          "type": "uint8"
        }
      ],
      "stateMutability": "view",
      "type": "function",
      "constant": true
    },
    {
      "inputs": [],
      "name": "name",
      "outputs": [
        {
          "internalType": "string",
          "name": "",
          "type": "string"
        }
      ],
      "stateMutability": "view",
      "type": "function",
      "constant": true
    },
    {
      "inputs": [],
      "name": "symbol",
      "outputs": [
        {
          "internalType": "string",
          "name": "",
          "type": "string"
        }
      ],
      "stateMutability": "view",
      "type": "function",
      "constant": true
    },
    {
      "inputs": [],
      "name": "totalSupply",
      "outputs": [
        {
          "internalType": "uint256",
          "name": "",
          "type": "uint256"
        }
      ],
      "stateMutability": "view",
      "type": "function",
      "constant": true
    },
    {
      "inputs": [
        {
          "internalType": "address",
          "name": "_to",
          "type": "address"
        },
        {
          "internalType": "uint256",
          "name": "_value",
          "type": "uint256"
        }
      ],
      "name": "transfer",
      "outputs": [
        {
          "internalType": "bool",
          "name": "success",
          "type": "bool"
        }
      ],
      "stateMutability": "nonpayable",
      "type": "function"
    },
    {
      "inputs": [
        {
          "internalType": "address",
          "name": "_spender",
          "type": "address"
        },
        {
          "internalType": "uint256",
          "name": "_value",
          "type": "uint256"
        }
      ],
      "name": "approve",
      "outputs": [
        {
          "internalType": "bool",
          "name": "success",
          "type": "bool"
        }
      ],
      "stateMutability": "nonpayable",
      "type": "function"
    },
    {
      "inputs": [
        {
          "internalType": "address",
          "name": "_owner",
          "type": "address"
        },
        {
          "internalType": "address",
          "name": "_spender",
          "type": "address"
        }
      ],
      "name": "isApproved",
      "outputs": [
        {
          "internalType": "uint256",
          "name": "",
          "type": "uint256"
        }
      ],
      "stateMutability": "view",
      "type": "function",
      "constant": true
    },
    {
      "inputs": [
        {
          "internalType": "uint256",
          "name": "_amount",
          "type": "uint256"
        }
      ],
      "name": "buyTokens",
      "outputs": [
        {
          "internalType": "bool",
          "name": "success",
          "type": "bool"
        }
      ],
      "stateMutability": "payable",
      "type": "function",
      "payable": true
    },
    {
      "inputs": [
        {
          "internalType": "uint256",
          "name": "_amount",
          "type": "uint256"
        }
      ],
      "name": "returnTokens",
      "outputs": [
        {
          "internalType": "bool",
          "name": "success",
          "type": "bool"
        }
      ],
      "stateMutability": "payable",
      "type": "function",
      "payable": true
    },
    {
      "inputs": [
        {
          "internalType": "address",
          "name": "_from",
          "type": "address"
        },
        {
          "internalType": "address",
          "name": "_to",
          "type": "address"
        },
        {
          "internalType": "uint256",
          "name": "_amount",
          "type": "uint256"
        }
      ],
      "name": "transferFrom",
      "outputs": [
        {
          "internalType": "bool",
          "name": "success",
          "type": "bool"
        }
      ],
      "stateMutability": "nonpayable",
      "type": "function"
    }
  ],
  "bytecode": "0x60806040526040518060400160405280600981526020017f474d4120546f6b656e0000000000000000000000000000000000000000000000815250600090805190602001906200005192919062000124565b506040518060400160405280600381526020017f474d410000000000000000000000000000000000000000000000000000000000815250600190805190602001906200009f92919062000124565b5069d3c21bcecceda10000006002556012600360006101000a81548160ff021916908360ff160217905550348015620000d757600080fd5b50600254600460003073ffffffffffffffffffffffffffffffffffffffff1673ffffffffffffffffffffffffffffffffffffffff1681526020019081526020016000208190555062000239565b8280546200013290620001d4565b90600052602060002090601f016020900481019282620001565760008555620001a2565b82601f106200017157805160ff1916838001178555620001a2565b82800160010185558215620001a2579182015b82811115620001a157825182559160200191906001019062000184565b5b509050620001b19190620001b5565b5090565b5b80821115620001d0576000816000905550600101620001b6565b5090565b60006002820490506001821680620001ed57607f821691505b602082108114156200020457620002036200020a565b5b50919050565b7f4e487b7100000000000000000000000000000000000000000000000000000000600052602260045260246000fd5b6116b880620002496000396000f3fe6080604052600436106100a75760003560e01c80633ae1786f116100645780633ae1786f146101d757806370a082311461020757806395d89b4114610244578063a389783e1461026f578063a9059cbb146102ac578063dd62ed3e146102e9576100a7565b806306fdde03146100ac578063095ea7b3146100d757806318160ddd1461011457806323b872dd1461013f578063313ce5671461017c5780633610724e146101a7575b600080fd5b3480156100b857600080fd5b506100c1610326565b6040516100ce9190611148565b60405180910390f35b3480156100e357600080fd5b506100fe60048036038101906100f99190610fb3565b6103b4565b60405161010b919061112d565b60405180910390f35b34801561012057600080fd5b506101296104a6565b604051610136919061120a565b60405180910390f35b34801561014b57600080fd5b5061016660048036038101906101619190610f64565b6104ac565b604051610173919061112d565b60405180910390f35b34801561018857600080fd5b5061019161079e565b60405161019e9190611225565b60405180910390f35b6101c160048036038101906101bc9190610fef565b6107b1565b6040516101ce919061112d565b60405180910390f35b6101f160048036038101906101ec9190610fef565b6109f8565b6040516101fe919061112d565b60405180910390f35b34801561021357600080fd5b5061022e60048036038101906102299190610eff565b610beb565b60405161023b919061120a565b60405180910390f35b34801561025057600080fd5b50610259610c03565b6040516102669190611148565b60405180910390f35b34801561027b57600080fd5b5061029660048036038101906102919190610f28565b610c91565b6040516102a3919061120a565b60405180910390f35b3480156102b857600080fd5b506102d360048036038101906102ce9190610fb3565b610d18565b6040516102e0919061112d565b60405180910390f35b3480156102f557600080fd5b50610310600480360381019061030b9190610f28565b610e81565b60405161031d919061120a565b60405180910390f35b60008054610333906113f9565b80601f016020809104026020016040519081016040528092919081815260200182805461035f906113f9565b80156103ac5780601f10610381576101008083540402835291602001916103ac565b820191906000526020600020905b81548152906001019060200180831161038f57829003601f168201915b505050505081565b600081600560003373ffffffffffffffffffffffffffffffffffffffff1673ffffffffffffffffffffffffffffffffffffffff16815260200190815260200160002060008573ffffffffffffffffffffffffffffffffffffffff1673ffffffffffffffffffffffffffffffffffffffff168152602001908152602001600020819055508273ffffffffffffffffffffffffffffffffffffffff163373ffffffffffffffffffffffffffffffffffffffff167f8c5be1e5ebec7d5bd14f71427d1e84f3dd0314c0f7b2291e5b200ac8c7c3b92584604051610494919061120a565b60405180910390a36001905092915050565b60025481565b600081600460008673ffffffffffffffffffffffffffffffffffffffff1673ffffffffffffffffffffffffffffffffffffffff168152602001908152602001600020541015610530576040517f08c379a00000000000000000000000000000000000000000000000000000000081526004016105279061118a565b60405180910390fd5b81600560008673ffffffffffffffffffffffffffffffffffffffff1673ffffffffffffffffffffffffffffffffffffffff16815260200190815260200160002060003373ffffffffffffffffffffffffffffffffffffffff1673ffffffffffffffffffffffffffffffffffffffff1681526020019081526020016000205410156105ef576040517f08c379a00000000000000000000000000000000000000000000000000000000081526004016105e6906111ca565b60405180910390fd5b81600460008673ffffffffffffffffffffffffffffffffffffffff1673ffffffffffffffffffffffffffffffffffffffff168152602001908152602001600020600082825461063e919061133d565b9250508190555081600460008573ffffffffffffffffffffffffffffffffffffffff1673ffffffffffffffffffffffffffffffffffffffff1681526020019081526020016000206000828254610694919061125c565b9250508190555081600560008673ffffffffffffffffffffffffffffffffffffffff1673ffffffffffffffffffffffffffffffffffffffff16815260200190815260200160002060003373ffffffffffffffffffffffffffffffffffffffff1673ffffffffffffffffffffffffffffffffffffffff1681526020019081526020016000206000828254610727919061133d565b925050819055508273ffffffffffffffffffffffffffffffffffffffff168473ffffffffffffffffffffffffffffffffffffffff167fddf252ad1be2c89b69c2b068fc378daa952ba7f163c4a11628f55a4df523b3ef8460405161078b919061120a565b60405180910390a3600190509392505050565b600360009054906101000a900460ff1681565b600081600460003073ffffffffffffffffffffffffffffffffffffffff1673ffffffffffffffffffffffffffffffffffffffff168152602001908152602001600020541015610835576040517f08c379a000000000000000000000000000000000000000000000000000000000815260040161082c906111aa565b60405180910390fd5b600061084083610ea6565b905080341015610885576040517f08c379a000000000000000000000000000000000000000000000000000000000815260040161087c9061116a565b60405180910390fd5b60008134610893919061133d565b90503373ffffffffffffffffffffffffffffffffffffffff166108fc829081150290604051600060405180830381858888f193505050501580156108db573d6000803e3d6000fd5b5083600460003073ffffffffffffffffffffffffffffffffffffffff1673ffffffffffffffffffffffffffffffffffffffff168152602001908152602001600020600082825461092b919061133d565b9250508190555083600460003373ffffffffffffffffffffffffffffffffffffffff1673ffffffffffffffffffffffffffffffffffffffff1681526020019081526020016000206000828254610981919061125c565b925050819055503373ffffffffffffffffffffffffffffffffffffffff163073ffffffffffffffffffffffffffffffffffffffff167fddf252ad1be2c89b69c2b068fc378daa952ba7f163c4a11628f55a4df523b3ef866040516109e5919061120a565b60405180910390a3600192505050919050565b600081600460003373ffffffffffffffffffffffffffffffffffffffff1673ffffffffffffffffffffffffffffffffffffffff168152602001908152602001600020541015610a7c576040517f08c379a0000000000000000000000000000000000000000000000000000000008152600401610a73906111ea565b60405180910390fd5b81600460003373ffffffffffffffffffffffffffffffffffffffff1673ffffffffffffffffffffffffffffffffffffffff1681526020019081526020016000206000828254610acb919061133d565b9250508190555081600460003073ffffffffffffffffffffffffffffffffffffffff1673ffffffffffffffffffffffffffffffffffffffff1681526020019081526020016000206000828254610b21919061125c565b925050819055506000610b3383610ea6565b90503373ffffffffffffffffffffffffffffffffffffffff166108fc829081150290604051600060405180830381858888f19350505050158015610b7b573d6000803e3d6000fd5b503373ffffffffffffffffffffffffffffffffffffffff163073ffffffffffffffffffffffffffffffffffffffff167fddf252ad1be2c89b69c2b068fc378daa952ba7f163c4a11628f55a4df523b3ef85604051610bd9919061120a565b60405180910390a36001915050919050565b60046020528060005260406000206000915090505481565b60018054610c10906113f9565b80601f0160208091040260200160405190810160405280929190818152602001828054610c3c906113f9565b8015610c895780601f10610c5e57610100808354040283529160200191610c89565b820191906000526020600020905b815481529060010190602001808311610c6c57829003601f168201915b505050505081565b6000600560008473ffffffffffffffffffffffffffffffffffffffff1673ffffffffffffffffffffffffffffffffffffffff16815260200190815260200160002060008373ffffffffffffffffffffffffffffffffffffffff1673ffffffffffffffffffffffffffffffffffffffff16815260200190815260200160002054905092915050565b600081600460003373ffffffffffffffffffffffffffffffffffffffff1673ffffffffffffffffffffffffffffffffffffffff168152602001908152602001600020541015610d6657600080fd5b81600460003373ffffffffffffffffffffffffffffffffffffffff1673ffffffffffffffffffffffffffffffffffffffff1681526020019081526020016000206000828254610db5919061133d565b9250508190555081600460008573ffffffffffffffffffffffffffffffffffffffff1673ffffffffffffffffffffffffffffffffffffffff1681526020019081526020016000206000828254610e0b919061125c565b925050819055508273ffffffffffffffffffffffffffffffffffffffff163373ffffffffffffffffffffffffffffffffffffffff167fddf252ad1be2c89b69c2b068fc378daa952ba7f163c4a11628f55a4df523b3ef84604051610e6f919061120a565b60405180910390a36001905092915050565b6005602052816000526040600020602052806000526040600020600091509150505481565b600066038d7ea4c68000670de0b6b3a764000083610ec491906112b2565b610ece91906112e3565b9050919050565b600081359050610ee481611654565b92915050565b600081359050610ef98161166b565b92915050565b600060208284031215610f1157600080fd5b6000610f1f84828501610ed5565b91505092915050565b60008060408385031215610f3b57600080fd5b6000610f4985828601610ed5565b9250506020610f5a85828601610ed5565b9150509250929050565b600080600060608486031215610f7957600080fd5b6000610f8786828701610ed5565b9350506020610f9886828701610ed5565b9250506040610fa986828701610eea565b9150509250925092565b60008060408385031215610fc657600080fd5b6000610fd485828601610ed5565b9250506020610fe585828601610eea565b9150509250929050565b60006020828403121561100157600080fd5b600061100f84828501610eea565b91505092915050565b61102181611383565b82525050565b600061103282611240565b61103c818561124b565b935061104c8185602086016113c6565b611055816114b8565b840191505092915050565b600061106d603a8361124b565b9150611078826114c9565b604082019050919050565b6000611090602d8361124b565b915061109b82611518565b604082019050919050565b60006110b360248361124b565b91506110be82611567565b604082019050919050565b60006110d6602d8361124b565b91506110e1826115b6565b604082019050919050565b60006110f960288361124b565b915061110482611605565b604082019050919050565b611118816113af565b82525050565b611127816113b9565b82525050565b60006020820190506111426000830184611018565b92915050565b600060208201905081810360008301526111628184611027565b905092915050565b6000602082019050818103600083015261118381611060565b9050919050565b600060208201905081810360008301526111a381611083565b9050919050565b600060208201905081810360008301526111c3816110a6565b9050919050565b600060208201905081810360008301526111e3816110c9565b9050919050565b60006020820190508181036000830152611203816110ec565b9050919050565b600060208201905061121f600083018461110f565b92915050565b600060208201905061123a600083018461111e565b92915050565b600081519050919050565b600082825260208201905092915050565b6000611267826113af565b9150611272836113af565b9250827fffffffffffffffffffffffffffffffffffffffffffffffffffffffffffffffff038211156112a7576112a661142b565b5b828201905092915050565b60006112bd826113af565b91506112c8836113af565b9250826112d8576112d761145a565b5b828204905092915050565b60006112ee826113af565b91506112f9836113af565b9250817fffffffffffffffffffffffffffffffffffffffffffffffffffffffffffffffff04831182151516156113325761133161142b565b5b828202905092915050565b6000611348826113af565b9150611353836113af565b9250828210156113665761136561142b565b5b828203905092915050565b600061137c8261138f565b9050919050565b60008115159050919050565b600073ffffffffffffffffffffffffffffffffffffffff82169050919050565b6000819050919050565b600060ff82169050919050565b60005b838110156113e45780820151818401526020810190506113c9565b838111156113f3576000848401525b50505050565b6000600282049050600182168061141157607f821691505b6020821081141561142557611424611489565b5b50919050565b7f4e487b7100000000000000000000000000000000000000000000000000000000600052601160045260246000fd5b7f4e487b7100000000000000000000000000000000000000000000000000000000600052601260045260246000fd5b7f4e487b7100000000000000000000000000000000000000000000000000000000600052602260045260246000fd5b6000601f19601f8301169050919050565b7f54686520616d6f756e742073656e74206973206e6f7420656e6f75676820746f60008201527f20627579207468652072657175657374656420746f6b656e732e000000000000602082015250565b7f5468652072657175657374656420616d6f756e7420697320677265617465722060008201527f7468616e2062616c616e63652e00000000000000000000000000000000000000602082015250565b7f546865726520617265206e6f7420656e6f75676820746f6b656e7320746f207360008201527f656c6c2e00000000000000000000000000000000000000000000000000000000602082015250565b7f596f7520617265206e6f7420616c6c6f77656420746f207472616e736665722060008201527f746865736520746f6b656e732e00000000000000000000000000000000000000602082015250565b7f596f7520646f206e6f74206861766520656e6f75676820746f6b656e7320746f60008201527f2072657475726e2e000000000000000000000000000000000000000000000000602082015250565b61165d81611371565b811461166857600080fd5b50565b611674816113af565b811461167f57600080fd5b5056fea2646970667358221220f6a5ed808250275edc195f510662886da85af5e4a9db45a43d68c9143d9db4d064736f6c63430008040033",
  "immutableReferences": {},
  "source": "// SPDX-License-Identifier: MIT\npragma solidity ^0.8.4;\n\ncontract GMAToken {\n\n    // Declaraciones \n    string public name = \"GMA Token\";\n    string public symbol = \"GMA\";\n    uint256 public totalSupply = 1000000000000000000000000; // 1 millon de tokens\n    uint8 public decimals = 18;\n\n    // Evento para la transferencia de tokens de un usuario\n    event Transfer (\n        address indexed _from,\n        address indexed _to,\n        uint256 _value\n    );\n\n    // Evento para la aprobacion de un operador\n    event Approval (\n        address indexed _owner, \n        address indexed _spender, \n        uint256 _value\n    );\n\n    // Estructuras de datos \n    mapping(address => uint256) public balanceOf;\n    mapping(address => mapping(address => uint)) public allowance;\n\n    // Constructor \n    constructor(){\n        balanceOf[address(this)] = totalSupply;\n    }\n\n    // Precio de los tokens ERC20\n    function tokenPrice(uint256 _numtokens) internal pure returns (uint256) {\n        return (_numtokens / 10**18) * (0.001 ether);\n    }\n\n    // Transferencia de tokens de un usuario\n    function transfer(address _to, uint256 _value) public returns (bool success) {\n        require(balanceOf[msg.sender] >= _value);\n        balanceOf[msg.sender] -= _value;\n        balanceOf[_to] += _value;\n        emit Transfer(msg.sender, _to, _value);\n        return true;\n    }\n\n    // Aprobacion de una cantidad para ser gastada por un operador\n    function approve(address _spender, uint256 _value) public returns (bool success) {\n        allowance[msg.sender][_spender] = _value;\n        emit Approval(msg.sender, _spender, _value);\n        return true;\n    }\n\n    function isApproved(address _owner, address _spender) public view returns(uint) {\n        return allowance[_owner][_spender];\n    }\n\n    function buyTokens(uint _amount) public payable returns (bool success) {\n        require(balanceOf[address(this)] >= _amount, \"There are not enough tokens to sell.\");\n        uint tokensCost = tokenPrice(_amount);\n        require(msg.value >= tokensCost,\"The amount sent is not enough to buy the requested tokens.\");\n        uint256 returnValue = msg.value - tokensCost;\n        payable(msg.sender).transfer(returnValue);\n        balanceOf[address(this)] -= _amount;\n        balanceOf[msg.sender] += _amount;\n        emit Transfer(address(this), msg.sender, _amount);\n        return true;\n    }\n\n    function returnTokens(uint _amount) public payable returns (bool success) {\n        require(balanceOf[address(msg.sender)] >= _amount, \"You do not have enough tokens to return.\");\n        balanceOf[msg.sender] -= _amount;\n        balanceOf[address(this)] += _amount;\n        uint tokensCost = tokenPrice(_amount);\n        payable(msg.sender).transfer(tokensCost);\n        emit Transfer(address(this), msg.sender, _amount);\n        return true;\n    }\n\n    // Transferencia de tokens especificando el emisor\n    function transferFrom(address _from, address _to, uint256 _amount) public returns (bool success) {\n        require(balanceOf[_from] >= _amount, \"The requested amount is greater than balance.\");\n        require(allowance[_from][msg.sender] >= _amount, \"You are not allowed to transfer these tokens.\");\n        balanceOf[_from] -= _amount;\n        balanceOf[_to] += _amount;\n        allowance[_from][msg.sender] -= _amount;\n        emit Transfer(_from, _to, _amount);\n        return true;\n    }\n}",
  "sourcePath": "/Users/gush/Documents/Desarrollo/Web3/Formacion/Blockchain/Amengual course/DeFi/src/contracts/GMAToken.sol",
  "compiler": {
    "name": "solc",
    "version": "0.8.4+commit.c7e474f2.Emscripten.clang"
  },
  "schemaVersion": "3.4.8",
  "updatedAt": "2022-10-08T10:48:37.444Z",
  "networkType": "ethereum",
  "devdoc": {
    "kind": "dev",
    "methods": {},
    "version": 1
  },
  "userdoc": {
    "kind": "user",
    "methods": {},
    "version": 1
  }
}