{
  "contractName": "TokenFarm",
  "abi": [
    {
      "inputs": [
        {
          "internalType": "contract RewardToken",
          "name": "_rewardToken",
          "type": "address"
        },
        {
          "internalType": "contract GMAToken",
          "name": "_gmaToken",
          "type": "address"
        }
      ],
      "stateMutability": "nonpayable",
      "type": "constructor"
    },
    {
      "inputs": [],
      "name": "APR",
      "outputs": [
        {
          "internalType": "uint256",
          "name": "",
          "type": "uint256"
        }
      ],
      "stateMutability": "view",
      "type": "function",
      "constant": true
    },
    {
      "inputs": [],
      "name": "gmaToken",
      "outputs": [
        {
          "internalType": "contract GMAToken",
          "name": "",
          "type": "address"
        }
      ],
      "stateMutability": "view",
      "type": "function",
      "constant": true
    },
    {
      "inputs": [
        {
          "internalType": "address",
          "name": "",
          "type": "address"
        }
      ],
      "name": "hasStaked",
      "outputs": [
        {
          "internalType": "bool",
          "name": "",
          "type": "bool"
        }
      ],
      "stateMutability": "view",
      "type": "function",
      "constant": true
    },
    {
      "inputs": [],
      "name": "name",
      "outputs": [
        {
          "internalType": "string",
          "name": "",
          "type": "string"
        }
      ],
      "stateMutability": "view",
      "type": "function",
      "constant": true
    },
    {
      "inputs": [],
      "name": "owner",
      "outputs": [
        {
          "internalType": "address",
          "name": "",
          "type": "address"
        }
      ],
      "stateMutability": "view",
      "type": "function",
      "constant": true
    },
    {
      "inputs": [],
      "name": "rewardToken",
      "outputs": [
        {
          "internalType": "contract RewardToken",
          "name": "",
          "type": "address"
        }
      ],
      "stateMutability": "view",
      "type": "function",
      "constant": true
    },
    {
      "inputs": [
        {
          "internalType": "uint256",
          "name": "",
          "type": "uint256"
        }
      ],
      "name": "stakers",
      "outputs": [
        {
          "internalType": "address",
          "name": "",
          "type": "address"
        }
      ],
      "stateMutability": "view",
      "type": "function",
      "constant": true
    },
    {
      "inputs": [
        {
          "internalType": "address",
          "name": "",
          "type": "address"
        }
      ],
      "name": "stakingBalance",
      "outputs": [
        {
          "internalType": "uint256",
          "name": "",
          "type": "uint256"
        }
      ],
      "stateMutability": "view",
      "type": "function",
      "constant": true
    },
    {
      "inputs": [
        {
          "internalType": "address",
          "name": "",
          "type": "address"
        }
      ],
      "name": "stakingFrom",
      "outputs": [
        {
          "internalType": "uint256",
          "name": "",
          "type": "uint256"
        }
      ],
      "stateMutability": "view",
      "type": "function",
      "constant": true
    },
    {
      "inputs": [
        {
          "internalType": "address",
          "name": "_userAddress",
          "type": "address"
        }
      ],
      "name": "getStakingBalance",
      "outputs": [
        {
          "internalType": "uint256",
          "name": "",
          "type": "uint256"
        }
      ],
      "stateMutability": "view",
      "type": "function",
      "constant": true
    },
    {
      "inputs": [
        {
          "internalType": "address",
          "name": "_userAddress",
          "type": "address"
        }
      ],
      "name": "getStakingFrom",
      "outputs": [
        {
          "internalType": "uint256",
          "name": "",
          "type": "uint256"
        }
      ],
      "stateMutability": "view",
      "type": "function",
      "constant": true
    },
    {
      "inputs": [
        {
          "internalType": "uint256",
          "name": "_amount",
          "type": "uint256"
        }
      ],
      "name": "stakeTokens",
      "outputs": [],
      "stateMutability": "nonpayable",
      "type": "function"
    },
    {
      "inputs": [],
      "name": "unstakeTokens",
      "outputs": [],
      "stateMutability": "nonpayable",
      "type": "function"
    },
    {
      "inputs": [
        {
          "internalType": "address",
          "name": "userAddress",
          "type": "address"
        }
      ],
      "name": "calculateRewards",
      "outputs": [
        {
          "internalType": "uint256",
          "name": "",
          "type": "uint256"
        }
      ],
      "stateMutability": "view",
      "type": "function",
      "constant": true
    },
    {
      "inputs": [],
      "name": "claimRewards",
      "outputs": [],
      "stateMutability": "nonpayable",
      "type": "function"
    },
    {
      "inputs": [],
      "name": "issueTokens",
      "outputs": [],
      "stateMutability": "nonpayable",
      "type": "function"
    }
  ],
  "bytecode": "0x60806040526040518060400160405280601181526020017f52657761726420546f6b656e204661726d000000000000000000000000000000815250600090805190602001906200005192919062000155565b50602d6004553480156200006457600080fd5b50604051620019193803806200191983398181016040528101906200008a919062000233565b81600360006101000a81548173ffffffffffffffffffffffffffffffffffffffff021916908373ffffffffffffffffffffffffffffffffffffffff16021790555080600260006101000a81548173ffffffffffffffffffffffffffffffffffffffff021916908373ffffffffffffffffffffffffffffffffffffffff16021790555033600160006101000a81548173ffffffffffffffffffffffffffffffffffffffff021916908373ffffffffffffffffffffffffffffffffffffffff160217905550505062000369565b8280546200016390620002d0565b90600052602060002090601f016020900481019282620001875760008555620001d3565b82601f10620001a257805160ff1916838001178555620001d3565b82800160010185558215620001d3579182015b82811115620001d2578251825591602001919060010190620001b5565b5b509050620001e29190620001e6565b5090565b5b8082111562000201576000816000905550600101620001e7565b5090565b600081519050620002168162000335565b92915050565b6000815190506200022d816200034f565b92915050565b600080604083850312156200024757600080fd5b600062000257858286016200021c565b92505060206200026a8582860162000205565b9150509250929050565b60006200028182620002b0565b9050919050565b6000620002958262000274565b9050919050565b6000620002a98262000274565b9050919050565b600073ffffffffffffffffffffffffffffffffffffffff82169050919050565b60006002820490506001821680620002e957607f821691505b602082108114156200030057620002ff62000306565b5b50919050565b7f4e487b7100000000000000000000000000000000000000000000000000000000600052602260045260246000fd5b620003408162000288565b81146200034c57600080fd5b50565b6200035a816200029c565b81146200036657600080fd5b50565b6115a080620003796000396000f3fe608060405234801561001057600080fd5b50600436106101005760003560e01c806399e6fe0711610097578063c93c8f3411610066578063c93c8f3414610277578063de385912146102a7578063f7c618c1146102d7578063fd5e6dd1146102f557610100565b806399e6fe07146101ef578063a5ce413b1461021f578063b04ef9c214610229578063bd30558e1461025957610100565b806364ab8675116100d357806364ab8675146101675780636b64ed4b146101975780637547c7a3146101b55780638da5cb5b146101d157610100565b806306fdde0314610105578063372500ab1461012357806345bc78ab1461012d57806360ab58521461015d575b600080fd5b61010d610325565b60405161011a91906110da565b60405180910390f35b61012b6103b3565b005b61014760048036038101906101429190610ea6565b6104b7565b604051610154919061115c565b60405180910390f35b6101656104cf565b005b610181600480360381019061017c9190610ea6565b6106ee565b60405161018e919061115c565b60405180910390f35b61019f6107c5565b6040516101ac91906110a4565b60405180910390f35b6101cf60048036038101906101ca9190610ef8565b6107eb565b005b6101d9610a8a565b6040516101e6919061100e565b60405180910390f35b61020960048036038101906102049190610ea6565b610ab0565b604051610216919061115c565b60405180910390f35b610227610ac8565b005b610243600480360381019061023e9190610ea6565b610d4a565b604051610250919061115c565b60405180910390f35b610261610d93565b60405161026e919061115c565b60405180910390f35b610291600480360381019061028c9190610ea6565b610d99565b60405161029e9190611089565b60405180910390f35b6102c160048036038101906102bc9190610ea6565b610db9565b6040516102ce919061115c565b60405180910390f35b6102df610e02565b6040516102ec91906110bf565b60405180910390f35b61030f600480360381019061030a9190610ef8565b610e28565b60405161031c919061100e565b60405180910390f35b600080546103329061136b565b80601f016020809104026020016040519081016040528092919081815260200182805461035e9061136b565b80156103ab5780601f10610380576101008083540402835291602001916103ab565b820191906000526020600020905b81548152906001019060200180831161038e57829003601f168201915b505050505081565b60006103be336106ee565b9050600360009054906101000a900473ffffffffffffffffffffffffffffffffffffffff1673ffffffffffffffffffffffffffffffffffffffff1663a9059cbb33836040518363ffffffff1660e01b815260040161041d929190611060565b602060405180830381600087803b15801561043757600080fd5b505af115801561044b573d6000803e3d6000fd5b505050506040513d601f19601f8201168201806040525081019061046f9190610ecf565b5042600860003373ffffffffffffffffffffffffffffffffffffffff1673ffffffffffffffffffffffffffffffffffffffff1681526020019081526020016000208190555050565b60066020528060005260406000206000915090505481565b600160009054906101000a900473ffffffffffffffffffffffffffffffffffffffff1673ffffffffffffffffffffffffffffffffffffffff163373ffffffffffffffffffffffffffffffffffffffff161461055f576040517f08c379a00000000000000000000000000000000000000000000000000000000081526004016105569061111c565b60405180910390fd5b60005b6005805490508110156106eb576000600582815481106105ab577f4e487b7100000000000000000000000000000000000000000000000000000000600052603260045260246000fd5b9060005260206000200160009054906101000a900473ffffffffffffffffffffffffffffffffffffffff1690506000600660008373ffffffffffffffffffffffffffffffffffffffff1673ffffffffffffffffffffffffffffffffffffffff16815260200190815260200160002054905060008111156106d657600360009054906101000a900473ffffffffffffffffffffffffffffffffffffffff1673ffffffffffffffffffffffffffffffffffffffff1663a9059cbb83836040518363ffffffff1660e01b8152600401610682929190611060565b602060405180830381600087803b15801561069c57600080fd5b505af11580156106b0573d6000803e3d6000fd5b505050506040513d601f19601f820116820180604052508101906106d49190610ecf565b505b505080806106e39061139d565b915050610562565b50565b600080600860008473ffffffffffffffffffffffffffffffffffffffff1673ffffffffffffffffffffffffffffffffffffffff168152602001908152602001600020544261073c9190611274565b90506000600660008573ffffffffffffffffffffffffffffffffffffffff1673ffffffffffffffffffffffffffffffffffffffff16815260200190815260200160002054905060006301e1338060045460648461079991906111e9565b6107a3919061121a565b846107ae919061121a565b6107b891906111e9565b9050809350505050919050565b600260009054906101000a900473ffffffffffffffffffffffffffffffffffffffff1681565b6000811161082e576040517f08c379a00000000000000000000000000000000000000000000000000000000081526004016108259061113c565b60405180910390fd5b600260009054906101000a900473ffffffffffffffffffffffffffffffffffffffff1673ffffffffffffffffffffffffffffffffffffffff166323b872dd3330846040518463ffffffff1660e01b815260040161088d93929190611029565b602060405180830381600087803b1580156108a757600080fd5b505af11580156108bb573d6000803e3d6000fd5b505050506040513d601f19601f820116820180604052508101906108df9190610ecf565b5080600660003373ffffffffffffffffffffffffffffffffffffffff1673ffffffffffffffffffffffffffffffffffffffff168152602001908152602001600020600082825461092f9190611193565b92505081905550600760003373ffffffffffffffffffffffffffffffffffffffff1673ffffffffffffffffffffffffffffffffffffffff16815260200190815260200160002060009054906101000a900460ff166109eb576005339080600181540180825580915050600190039060005260206000200160009091909190916101000a81548173ffffffffffffffffffffffffffffffffffffffff021916908373ffffffffffffffffffffffffffffffffffffffff1602179055505b42600860003373ffffffffffffffffffffffffffffffffffffffff1673ffffffffffffffffffffffffffffffffffffffff168152602001908152602001600020819055506001600760003373ffffffffffffffffffffffffffffffffffffffff1673ffffffffffffffffffffffffffffffffffffffff16815260200190815260200160002060006101000a81548160ff02191690831515021790555050565b600160009054906101000a900473ffffffffffffffffffffffffffffffffffffffff1681565b60086020528060005260406000206000915090505481565b6000600660003373ffffffffffffffffffffffffffffffffffffffff1673ffffffffffffffffffffffffffffffffffffffff16815260200190815260200160002054905060008111610b4f576040517f08c379a0000000000000000000000000000000000000000000000000000000008152600401610b46906110fc565b60405180910390fd5b6000610b5a336106ee565b9050600360009054906101000a900473ffffffffffffffffffffffffffffffffffffffff1673ffffffffffffffffffffffffffffffffffffffff1663a9059cbb33836040518363ffffffff1660e01b8152600401610bb9929190611060565b602060405180830381600087803b158015610bd357600080fd5b505af1158015610be7573d6000803e3d6000fd5b505050506040513d601f19601f82011682018060405250810190610c0b9190610ecf565b50600260009054906101000a900473ffffffffffffffffffffffffffffffffffffffff1673ffffffffffffffffffffffffffffffffffffffff1663a9059cbb33846040518363ffffffff1660e01b8152600401610c69929190611060565b602060405180830381600087803b158015610c8357600080fd5b505af1158015610c97573d6000803e3d6000fd5b505050506040513d601f19601f82011682018060405250810190610cbb9190610ecf565b506000600660003373ffffffffffffffffffffffffffffffffffffffff1673ffffffffffffffffffffffffffffffffffffffff168152602001908152602001600020819055506000600860003373ffffffffffffffffffffffffffffffffffffffff1673ffffffffffffffffffffffffffffffffffffffff168152602001908152602001600020819055505050565b6000600660008373ffffffffffffffffffffffffffffffffffffffff1673ffffffffffffffffffffffffffffffffffffffff168152602001908152602001600020549050919050565b60045481565b60076020528060005260406000206000915054906101000a900460ff1681565b6000600860008373ffffffffffffffffffffffffffffffffffffffff1673ffffffffffffffffffffffffffffffffffffffff168152602001908152602001600020549050919050565b600360009054906101000a900473ffffffffffffffffffffffffffffffffffffffff1681565b60058181548110610e3857600080fd5b906000526020600020016000915054906101000a900473ffffffffffffffffffffffffffffffffffffffff1681565b600081359050610e7681611525565b92915050565b600081519050610e8b8161153c565b92915050565b600081359050610ea081611553565b92915050565b600060208284031215610eb857600080fd5b6000610ec684828501610e67565b91505092915050565b600060208284031215610ee157600080fd5b6000610eef84828501610e7c565b91505092915050565b600060208284031215610f0a57600080fd5b6000610f1884828501610e91565b91505092915050565b610f2a816112a8565b82525050565b610f39816112ba565b82525050565b610f48816112f0565b82525050565b610f5781611314565b82525050565b6000610f6882611177565b610f728185611182565b9350610f82818560208601611338565b610f8b81611473565b840191505092915050565b6000610fa3601b83611182565b9150610fae82611484565b602082019050919050565b6000610fc6601083611182565b9150610fd1826114ad565b602082019050919050565b6000610fe9602283611182565b9150610ff4826114d6565b604082019050919050565b611008816112e6565b82525050565b60006020820190506110236000830184610f21565b92915050565b600060608201905061103e6000830186610f21565b61104b6020830185610f21565b6110586040830184610fff565b949350505050565b60006040820190506110756000830185610f21565b6110826020830184610fff565b9392505050565b600060208201905061109e6000830184610f30565b92915050565b60006020820190506110b96000830184610f3f565b92915050565b60006020820190506110d46000830184610f4e565b92915050565b600060208201905081810360008301526110f48184610f5d565b905092915050565b6000602082019050818103600083015261111581610f96565b9050919050565b6000602082019050818103600083015261113581610fb9565b9050919050565b6000602082019050818103600083015261115581610fdc565b9050919050565b60006020820190506111716000830184610fff565b92915050565b600081519050919050565b600082825260208201905092915050565b600061119e826112e6565b91506111a9836112e6565b9250827fffffffffffffffffffffffffffffffffffffffffffffffffffffffffffffffff038211156111de576111dd6113e6565b5b828201905092915050565b60006111f4826112e6565b91506111ff836112e6565b92508261120f5761120e611415565b5b828204905092915050565b6000611225826112e6565b9150611230836112e6565b9250817fffffffffffffffffffffffffffffffffffffffffffffffffffffffffffffffff0483118215151615611269576112686113e6565b5b828202905092915050565b600061127f826112e6565b915061128a836112e6565b92508282101561129d5761129c6113e6565b5b828203905092915050565b60006112b3826112c6565b9050919050565b60008115159050919050565b600073ffffffffffffffffffffffffffffffffffffffff82169050919050565b6000819050919050565b60006112fb82611302565b9050919050565b600061130d826112c6565b9050919050565b600061131f82611326565b9050919050565b6000611331826112c6565b9050919050565b60005b8381101561135657808201518184015260208101905061133b565b83811115611365576000848401525b50505050565b6000600282049050600182168061138357607f821691505b6020821081141561139757611396611444565b5b50919050565b60006113a8826112e6565b91507fffffffffffffffffffffffffffffffffffffffffffffffffffffffffffffffff8214156113db576113da6113e6565b5b600182019050919050565b7f4e487b7100000000000000000000000000000000000000000000000000000000600052601160045260246000fd5b7f4e487b7100000000000000000000000000000000000000000000000000000000600052601260045260246000fd5b7f4e487b7100000000000000000000000000000000000000000000000000000000600052602260045260246000fd5b6000601f19601f8301169050919050565b7f456c2062616c616e63652064656c207374616b696e6720657320300000000000600082015250565b7f4e6f206572657320656c206f776e657200000000000000000000000000000000600082015250565b7f4c612063616e7469646164206e6f20707565646520736572206d656e6f72206160008201527f2030000000000000000000000000000000000000000000000000000000000000602082015250565b61152e816112a8565b811461153957600080fd5b50565b611545816112ba565b811461155057600080fd5b50565b61155c816112e6565b811461156757600080fd5b5056fea2646970667358221220e6775484d207ebe46ee33ead379ed55ea514048ee6915e18d374c5f900008f8564736f6c63430008040033",
  "immutableReferences": {},
  "source": "// SPDX-License-Identifier: MIT\npragma solidity ^0.8.4;\n\nimport \"./GMAToken.sol\";\nimport \"./RewardToken.sol\";\n\ncontract TokenFarm {\n\n    // Declaraciones iniciales\n    string public name = \"Reward Token Farm\";\n    address public owner;\n    GMAToken public gmaToken;\n    RewardToken public rewardToken;\n    uint public APR = 45;\n\n    // Estructuras de datos \n    address [] public stakers;\n    mapping(address => uint) public stakingBalance;\n    mapping(address => bool) public hasStaked;\n    mapping(address => uint) public stakingFrom;\n\n    // Constructor \n    constructor(RewardToken _rewardToken, GMAToken _gmaToken) {\n        rewardToken = _rewardToken;\n        gmaToken = _gmaToken;\n        owner = msg.sender;\n    }\n\n    function getStakingBalance(address _userAddress) public view returns(uint) {\n        return stakingBalance[_userAddress];\n    }\n\n    function getStakingFrom(address _userAddress) public view returns(uint) {\n        return stakingFrom[_userAddress];\n    }\n\n    // Stake de tokens \n    function stakeTokens(uint _amount) public {\n        // Se require una cantidad superior a 0 \n        require(_amount > 0, \"La cantidad no puede ser menor a 0\");\n        // Transferir tokens GMA al Smart Contract principal\n        gmaToken.transferFrom(msg.sender, address(this), _amount);\n        // Actualizar el saldo del staking\n        stakingBalance[msg.sender] += _amount;\n        // Guardar el staker\n        if(!hasStaked[msg.sender]){\n            stakers.push(msg.sender);\n        }\n        // Actualizar el estado del staking\n        stakingFrom[msg.sender] = block.timestamp;\n        hasStaked[msg.sender] = true;\n    }\n\n    // Quitar el staking de los tokens \n    function unstakeTokens() public {\n        // Saldo del staking de un usuario \n        uint balance = stakingBalance[msg.sender];\n        // Se require una cantidad superior a 0\n        require(balance > 0, \"El balance del staking es 0\");\n        // Transferimos las recompensas al usuario\n        uint _rewards = calculateRewards(msg.sender);\n        rewardToken.transfer(msg.sender, _rewards);\n        // Transferencia de los tokens al usuario\n        gmaToken.transfer(msg.sender, balance);\n        // Resetea el balance de recompensas del usuario \n        stakingBalance[msg.sender] = 0;\n        // Reseteamos el estado del staking\n        stakingFrom[msg.sender] = 0;\n    }\n\n    // Calculamos las recompensas\n    function calculateRewards(address userAddress) public view returns(uint) {\n        // Calculamos el tiempo que llevamos haciendo staking y la cantidad stackeada\n        uint stakedTime = block.timestamp - stakingFrom[userAddress];\n        uint stakedAmount = stakingBalance[userAddress];\n        // Calculamos la recompensa\n        // Si... yearInSeconds = (stakedAmount / 100) * APR\n        // Entonces... stakedTime = X\n        // (stakedTime * ((stakedAmount / 100) * APR)) / yearInSeconds\n        uint reward = (stakedTime * ((stakedAmount / 100) * APR)) / 31536000;\n        return reward;\n    }\n\n    // Claim Rewards\n    function claimRewards() public {\n        // Transferimos las recompensas al usuario\n        uint _rewards = calculateRewards(msg.sender);\n        rewardToken.transfer(msg.sender, _rewards);\n        // Reseteamos el estado del staking\n        stakingFrom[msg.sender] = block.timestamp;\n    }\n\n    // Emision de Tokens (recompensas)\n    function issueTokens() public {\n        // Unicamente ejecutable por el owner\n        require(msg.sender == owner, \"No eres el owner\");\n        // Emitir tokens a todos los stakers\n        for (uint i=0; i < stakers.length; i++){\n            address recipient = stakers[i];\n            uint balance = stakingBalance[recipient];\n            if(balance > 0){\n                rewardToken.transfer(recipient, balance);\n            }\n        }\n    }\n}",
  "sourcePath": "/Users/gush/Documents/Desarrollo/Web3/Formacion/Blockchain/Amengual course/DeFi/src/contracts/TokenFarm.sol",
  "compiler": {
    "name": "solc",
    "version": "0.8.4+commit.c7e474f2.Emscripten.clang"
  },
  "schemaVersion": "3.4.8",
  "updatedAt": "2022-10-08T10:48:37.456Z",
  "networkType": "ethereum",
  "devdoc": {
    "kind": "dev",
    "methods": {},
    "version": 1
  },
  "userdoc": {
    "kind": "user",
    "methods": {},
    "version": 1
  }
}